{
  "_format": "hh-sol-artifact-1",
  "contractName": "kyc",
  "sourceName": "contracts/KYC.sol",
  "abi": [
    {
      "inputs": [],
      "stateMutability": "nonpayable",
      "type": "constructor"
    },
    {
      "inputs": [
        {
          "internalType": "string",
          "name": "_username",
          "type": "string"
        },
        {
          "internalType": "string",
          "name": "_customerData",
          "type": "string"
        }
      ],
      "name": "KYCRequest",
      "outputs": [
        {
          "internalType": "bool",
          "name": "",
          "type": "bool"
        },
        {
          "internalType": "string",
          "name": "",
          "type": "string"
        }
      ],
      "stateMutability": "nonpayable",
      "type": "function"
    },
    {
      "inputs": [
        {
          "internalType": "string",
          "name": "_name",
          "type": "string"
        },
        {
          "internalType": "address",
          "name": "_bankAdress",
          "type": "address"
        },
        {
          "internalType": "string",
          "name": "_regNum",
          "type": "string"
        }
      ],
      "name": "addBank",
      "outputs": [],
      "stateMutability": "nonpayable",
      "type": "function"
    },
    {
      "inputs": [
        {
          "internalType": "string",
          "name": "_username",
          "type": "string"
        }
      ],
      "name": "downVoteCustomer",
      "outputs": [],
      "stateMutability": "nonpayable",
      "type": "function"
    },
    {
      "inputs": [
        {
          "internalType": "address",
          "name": "_bankAdress",
          "type": "address"
        }
      ],
      "name": "getBank",
      "outputs": [
        {
          "internalType": "string",
          "name": "",
          "type": "string"
        }
      ],
      "stateMutability": "view",
      "type": "function"
    },
    {
      "inputs": [
        {
          "internalType": "address",
          "name": "_bankAdress",
          "type": "address"
        }
      ],
      "name": "getBankComplaints",
      "outputs": [
        {
          "internalType": "uint256",
          "name": "",
          "type": "uint256"
        }
      ],
      "stateMutability": "view",
      "type": "function"
    },
    {
      "inputs": [],
      "name": "getBankCount",
      "outputs": [
        {
          "internalType": "uint256",
          "name": "",
          "type": "uint256"
        }
      ],
      "stateMutability": "view",
      "type": "function"
    },
    {
      "inputs": [
        {
          "internalType": "string",
          "name": "_username",
          "type": "string"
        }
      ],
      "name": "getCustomer",
      "outputs": [
        {
          "internalType": "string",
          "name": "",
          "type": "string"
        },
        {
          "internalType": "string",
          "name": "",
          "type": "string"
        },
        {
          "internalType": "bool",
          "name": "",
          "type": "bool"
        },
        {
          "internalType": "address",
          "name": "",
          "type": "address"
        }
      ],
      "stateMutability": "view",
      "type": "function"
    },
    {
      "inputs": [
        {
          "internalType": "address",
          "name": "_bankAdress",
          "type": "address"
        }
      ],
      "name": "getMinBankComplaints",
      "outputs": [
        {
          "internalType": "uint256",
          "name": "",
          "type": "uint256"
        }
      ],
      "stateMutability": "view",
      "type": "function"
    },
    {
      "inputs": [],
      "name": "getMinDownVote",
      "outputs": [
        {
          "internalType": "uint256",
          "name": "",
          "type": "uint256"
        }
      ],
      "stateMutability": "view",
      "type": "function"
    },
    {
      "inputs": [
        {
          "internalType": "address",
          "name": "_bankAdress",
          "type": "address"
        },
        {
          "internalType": "bool",
          "name": "vote",
          "type": "bool"
        }
      ],
      "name": "isAllowVoting",
      "outputs": [],
      "stateMutability": "nonpayable",
      "type": "function"
    },
    {
      "inputs": [
        {
          "internalType": "string",
          "name": "_username",
          "type": "string"
        }
      ],
      "name": "rejectKYC",
      "outputs": [],
      "stateMutability": "nonpayable",
      "type": "function"
    },
    {
      "inputs": [
        {
          "internalType": "address",
          "name": "_bankAdress",
          "type": "address"
        }
      ],
      "name": "removeBank",
      "outputs": [],
      "stateMutability": "nonpayable",
      "type": "function"
    },
    {
      "inputs": [
        {
          "internalType": "address",
          "name": "_bankAdress",
          "type": "address"
        }
      ],
      "name": "reportBank",
      "outputs": [],
      "stateMutability": "nonpayable",
      "type": "function"
    },
    {
      "inputs": [
        {
          "internalType": "string",
          "name": "_username",
          "type": "string"
        },
        {
          "internalType": "string",
          "name": "_customerData",
          "type": "string"
        }
      ],
      "name": "setCustomer",
      "outputs": [
        {
          "internalType": "string",
          "name": "",
          "type": "string"
        }
      ],
      "stateMutability": "nonpayable",
      "type": "function"
    },
    {
      "inputs": [
        {
          "internalType": "string",
          "name": "_username",
          "type": "string"
        }
      ],
      "name": "upVoteCustomer",
      "outputs": [],
      "stateMutability": "nonpayable",
      "type": "function"
    },
    {
      "inputs": [
        {
          "internalType": "string",
          "name": "_username",
          "type": "string"
        }
      ],
      "name": "verifyKYC",
      "outputs": [],
      "stateMutability": "nonpayable",
      "type": "function"
    }
  ],
  "bytecode": "0x608060405234801561001057600080fd5b5033600660006101000a81548173ffffffffffffffffffffffffffffffffffffffff021916908373ffffffffffffffffffffffffffffffffffffffff160217905550613e85806100616000396000f3fe608060405234801561001057600080fd5b50600436106101005760003560e01c80636c79a4ec11610097578063a5a4980011610066578063a5a49800146102bf578063b7da9926146102db578063ccfa8e711461030b578063e22b092a1461032757610100565b80636c79a4ec1461022657806382e0438a1461025757806383e0c31d146102735780639649650c146102a357610100565b806354fb7d7c116100d357806354fb7d7c146101a2578063569e64bc146101be5780635ec2a7f2146101da578063669e212a1461020a57610100565b80630c4ff16e146101055780631928bfe3146101215780632e44715d14610151578063518bddd91461016f575b600080fd5b61011f600480360381019061011a91906132cf565b610345565b005b61013b600480360381019061013691906132a6565b610507565b6040516101489190613b14565b60405180910390f35b6101596106e4565b6040516101669190613b14565b60405180910390f35b6101896004803603810190610184919061330b565b6106ee565b6040516101999493929190613941565b60405180910390f35b6101bc60048036038101906101b7919061330b565b610a53565b005b6101d860048036038101906101d3919061330b565b610cee565b005b6101f460048036038101906101ef91906132a6565b6111cb565b6040516102019190613b14565b60405180910390f35b610224600480360381019061021f919061330b565b61137b565b005b610240600480360381019061023b91906133cb565b6115b2565b60405161024e9291906138ef565b60405180910390f35b610271600480360381019061026c919061330b565b611948565b005b61028d600480360381019061028891906132a6565b611f58565b60405161029a919061391f565b60405180910390f35b6102bd60048036038101906102b891906132a6565b612190565b005b6102d960048036038101906102d491906132a6565b6123be565b005b6102f560048036038101906102f091906133cb565b6128d8565b604051610302919061391f565b60405180910390f35b6103256004803603810190610320919061334c565b612c42565b005b61032f612e4d565b60405161033c9190613b14565b60405180910390f35b600660009054906101000a900473ffffffffffffffffffffffffffffffffffffffff1673ffffffffffffffffffffffffffffffffffffffff163373ffffffffffffffffffffffffffffffffffffffff16146103d5576040517f08c379a00000000000000000000000000000000000000000000000000000000081526004016103cc906139b4565b60405180910390fd5b81600073ffffffffffffffffffffffffffffffffffffffff16600160008373ffffffffffffffffffffffffffffffffffffffff1673ffffffffffffffffffffffffffffffffffffffff16815260200190815260200160002060010160009054906101000a900473ffffffffffffffffffffffffffffffffffffffff1673ffffffffffffffffffffffffffffffffffffffff1614156104a8576040517f08c379a000000000000000000000000000000000000000000000000000000000815260040161049f90613ab4565b60405180910390fd5b81600160008573ffffffffffffffffffffffffffffffffffffffff1673ffffffffffffffffffffffffffffffffffffffff16815260200190815260200160002060050160006101000a81548160ff021916908315150217905550505050565b6000600660009054906101000a900473ffffffffffffffffffffffffffffffffffffffff1673ffffffffffffffffffffffffffffffffffffffff163373ffffffffffffffffffffffffffffffffffffffff1614610599576040517f08c379a0000000000000000000000000000000000000000000000000000000008152600401610590906139b4565b60405180910390fd5b81600073ffffffffffffffffffffffffffffffffffffffff16600160008373ffffffffffffffffffffffffffffffffffffffff1673ffffffffffffffffffffffffffffffffffffffff16815260200190815260200160002060010160009054906101000a900473ffffffffffffffffffffffffffffffffffffffff1673ffffffffffffffffffffffffffffffffffffffff16141561066c576040517f08c379a000000000000000000000000000000000000000000000000000000000815260040161066390613ab4565b60405180910390fd5b6003600160008573ffffffffffffffffffffffffffffffffffffffff1673ffffffffffffffffffffffffffffffffffffffff1681526020019081526020016000206003015411156106d9576064601e6007546106c89190613c3e565b6106d29190613c0d565b91506106de565b600391505b50919050565b6000600754905090565b606080600080600073ffffffffffffffffffffffffffffffffffffffff16600160003373ffffffffffffffffffffffffffffffffffffffff1673ffffffffffffffffffffffffffffffffffffffff16815260200190815260200160002060010160009054906101000a900473ffffffffffffffffffffffffffffffffffffffff1673ffffffffffffffffffffffffffffffffffffffff1614156107c6576040517f08c379a00000000000000000000000000000000000000000000000000000000081526004016107bd90613994565b60405180910390fd5b84600073ffffffffffffffffffffffffffffffffffffffff166000826040516107ef91906138d8565b908152602001604051809103902060020160009054906101000a900473ffffffffffffffffffffffffffffffffffffffff1673ffffffffffffffffffffffffffffffffffffffff161415610878576040517f08c379a000000000000000000000000000000000000000000000000000000000815260040161086f90613a54565b60405180910390fd5b60008660405161088891906138d8565b90815260200160405180910390206000016000876040516108a991906138d8565b90815260200160405180910390206001016000886040516108ca91906138d8565b908152602001604051809103902060020160149054906101000a900460ff166000896040516108f991906138d8565b908152602001604051809103902060020160009054906101000a900473ffffffffffffffffffffffffffffffffffffffff1683805461093790613d22565b80601f016020809104026020016040519081016040528092919081815260200182805461096390613d22565b80156109b05780601f10610985576101008083540402835291602001916109b0565b820191906000526020600020905b81548152906001019060200180831161099357829003601f168201915b505050505093508280546109c390613d22565b80601f01602080910402602001604051908101604052809291908181526020018280546109ef90613d22565b8015610a3c5780601f10610a1157610100808354040283529160200191610a3c565b820191906000526020600020905b815481529060010190602001808311610a1f57829003601f168201915b505050505092509450945094509450509193509193565b600073ffffffffffffffffffffffffffffffffffffffff16600160003373ffffffffffffffffffffffffffffffffffffffff1673ffffffffffffffffffffffffffffffffffffffff16815260200190815260200160002060010160009054906101000a900473ffffffffffffffffffffffffffffffffffffffff1673ffffffffffffffffffffffffffffffffffffffff161415610b25576040517f08c379a0000000000000000000000000000000000000000000000000000000008152600401610b1c90613994565b60405180910390fd5b3373ffffffffffffffffffffffffffffffffffffffff16600282604051610b4c91906138d8565b908152602001604051809103902060010160009054906101000a900473ffffffffffffffffffffffffffffffffffffffff1673ffffffffffffffffffffffffffffffffffffffff1614610bd4576040517f08c379a0000000000000000000000000000000000000000000000000000000008152600401610bcb90613a94565b60405180910390fd5b3373ffffffffffffffffffffffffffffffffffffffff16600082604051610bfb91906138d8565b908152602001604051809103902060020160009054906101000a900473ffffffffffffffffffffffffffffffffffffffff1673ffffffffffffffffffffffffffffffffffffffff1614610c83576040517f08c379a0000000000000000000000000000000000000000000000000000000008152600401610c7a90613a14565b60405180910390fd5b600281604051610c9391906138d8565b908152602001604051809103902060008082016000610cb2919061305e565b6001820160006101000a81549073ffffffffffffffffffffffffffffffffffffffff0219169055600282016000610ce9919061305e565b505050565b600073ffffffffffffffffffffffffffffffffffffffff16600160003373ffffffffffffffffffffffffffffffffffffffff1673ffffffffffffffffffffffffffffffffffffffff16815260200190815260200160002060010160009054906101000a900473ffffffffffffffffffffffffffffffffffffffff1673ffffffffffffffffffffffffffffffffffffffff161415610dc0576040517f08c379a0000000000000000000000000000000000000000000000000000000008152600401610db790613994565b60405180910390fd5b80600073ffffffffffffffffffffffffffffffffffffffff16600082604051610de991906138d8565b908152602001604051809103902060020160009054906101000a900473ffffffffffffffffffffffffffffffffffffffff1673ffffffffffffffffffffffffffffffffffffffff161415610e72576040517f08c379a0000000000000000000000000000000000000000000000000000000008152600401610e6990613a54565b60405180910390fd5b60011515600160003373ffffffffffffffffffffffffffffffffffffffff1673ffffffffffffffffffffffffffffffffffffffff16815260200190815260200160002060050160009054906101000a900460ff16151514610f08576040517f08c379a0000000000000000000000000000000000000000000000000000000008152600401610eff906139d4565b60405180910390fd5b3373ffffffffffffffffffffffffffffffffffffffff16600083604051610f2f91906138d8565b908152602001604051809103902060020160009054906101000a900473ffffffffffffffffffffffffffffffffffffffff1673ffffffffffffffffffffffffffffffffffffffff161415610fb8576040517f08c379a0000000000000000000000000000000000000000000000000000000008152600401610faf90613af4565b60405180910390fd5b60011515600360003373ffffffffffffffffffffffffffffffffffffffff1673ffffffffffffffffffffffffffffffffffffffff1681526020019081526020016000208360405161100991906138d8565b908152602001604051809103902060009054906101000a900460ff1615151415611068576040517f08c379a000000000000000000000000000000000000000000000000000000000815260040161105f90613a74565b60405180910390fd5b600160008360405161107a91906138d8565b9081526020016040518091039020600401600082825461109a9190613bb7565b925050819055506001600360003373ffffffffffffffffffffffffffffffffffffffff1673ffffffffffffffffffffffffffffffffffffffff168152602001908152602001600020836040516110f091906138d8565b908152602001604051809103902060006101000a81548160ff021916908315150217905550600360008360405161112791906138d8565b908152602001604051809103902060040154118015611187575060008260405161115191906138d8565b90815260200160405180910390206003015460008360405161117391906138d8565b908152602001604051809103902060040154115b156111c757600160008360405161119e91906138d8565b908152602001604051809103902060020160146101000a81548160ff0219169083151502179055505b5050565b6000600660009054906101000a900473ffffffffffffffffffffffffffffffffffffffff1673ffffffffffffffffffffffffffffffffffffffff163373ffffffffffffffffffffffffffffffffffffffff161461125d576040517f08c379a0000000000000000000000000000000000000000000000000000000008152600401611254906139b4565b60405180910390fd5b81600073ffffffffffffffffffffffffffffffffffffffff16600160008373ffffffffffffffffffffffffffffffffffffffff1673ffffffffffffffffffffffffffffffffffffffff16815260200190815260200160002060010160009054906101000a900473ffffffffffffffffffffffffffffffffffffffff1673ffffffffffffffffffffffffffffffffffffffff161415611330576040517f08c379a000000000000000000000000000000000000000000000000000000000815260040161132790613ab4565b60405180910390fd5b600160008473ffffffffffffffffffffffffffffffffffffffff1673ffffffffffffffffffffffffffffffffffffffff16815260200190815260200160002060030154915050919050565b600073ffffffffffffffffffffffffffffffffffffffff16600160003373ffffffffffffffffffffffffffffffffffffffff1673ffffffffffffffffffffffffffffffffffffffff16815260200190815260200160002060010160009054906101000a900473ffffffffffffffffffffffffffffffffffffffff1673ffffffffffffffffffffffffffffffffffffffff16141561144d576040517f08c379a000000000000000000000000000000000000000000000000000000000815260040161144490613994565b60405180910390fd5b3373ffffffffffffffffffffffffffffffffffffffff1660028260405161147491906138d8565b908152602001604051809103902060010160009054906101000a900473ffffffffffffffffffffffffffffffffffffffff1673ffffffffffffffffffffffffffffffffffffffff16146114fc576040517f08c379a00000000000000000000000000000000000000000000000000000000081526004016114f390613a94565b60405180910390fd5b6115af8160028360405161151091906138d8565b9081526020016040518091039020600201805461152c90613d22565b80601f016020809104026020016040519081016040528092919081815260200182805461155890613d22565b80156115a55780601f1061157a576101008083540402835291602001916115a5565b820191906000526020600020905b81548152906001019060200180831161158857829003601f168201915b5050505050612e6f565b50565b60006060600073ffffffffffffffffffffffffffffffffffffffff16600160003373ffffffffffffffffffffffffffffffffffffffff1673ffffffffffffffffffffffffffffffffffffffff16815260200190815260200160002060010160009054906101000a900473ffffffffffffffffffffffffffffffffffffffff1673ffffffffffffffffffffffffffffffffffffffff161415611688576040517f08c379a000000000000000000000000000000000000000000000000000000000815260040161167f90613994565b60405180910390fd5b60018060003373ffffffffffffffffffffffffffffffffffffffff1673ffffffffffffffffffffffffffffffffffffffff16815260200190815260200160002060040160008282546116da9190613bb7565b92505081905550600073ffffffffffffffffffffffffffffffffffffffff1660028560405161170991906138d8565b908152602001604051809103902060010160009054906101000a900473ffffffffffffffffffffffffffffffffffffffff1673ffffffffffffffffffffffffffffffffffffffff161461180e57600060028560405161176891906138d8565b908152602001604051809103902060020180805461178590613d22565b80601f01602080910402602001604051908101604052809291908181526020018280546117b190613d22565b80156117fe5780601f106117d3576101008083540402835291602001916117fe565b820191906000526020600020905b8154815290600101906020018083116117e157829003601f168201915b5050505050905091509150611941565b61181661309e565b84816000018190525033816020019073ffffffffffffffffffffffffffffffffffffffff16908173ffffffffffffffffffffffffffffffffffffffff16815250508381604001819052508060028660405161187191906138d8565b9081526020016040518091039020600082015181600001908051906020019061189b9291906130d5565b5060208201518160010160006101000a81548173ffffffffffffffffffffffffffffffffffffffff021916908373ffffffffffffffffffffffffffffffffffffffff16021790555060408201518160020190805190602001906118ff9291906130d5565b5090505060016040518060400160405280600f81526020017f5265717565737420656e7465726564000000000000000000000000000000000081525092509250505b9250929050565b600073ffffffffffffffffffffffffffffffffffffffff16600160003373ffffffffffffffffffffffffffffffffffffffff1673ffffffffffffffffffffffffffffffffffffffff16815260200190815260200160002060010160009054906101000a900473ffffffffffffffffffffffffffffffffffffffff1673ffffffffffffffffffffffffffffffffffffffff161415611a1a576040517f08c379a0000000000000000000000000000000000000000000000000000000008152600401611a1190613994565b60405180910390fd5b80600073ffffffffffffffffffffffffffffffffffffffff16600082604051611a4391906138d8565b908152602001604051809103902060020160009054906101000a900473ffffffffffffffffffffffffffffffffffffffff1673ffffffffffffffffffffffffffffffffffffffff161415611acc576040517f08c379a0000000000000000000000000000000000000000000000000000000008152600401611ac390613a54565b60405180910390fd5b60011515600160003373ffffffffffffffffffffffffffffffffffffffff1673ffffffffffffffffffffffffffffffffffffffff16815260200190815260200160002060050160009054906101000a900460ff16151514611b62576040517f08c379a0000000000000000000000000000000000000000000000000000000008152600401611b59906139d4565b60405180910390fd5b3373ffffffffffffffffffffffffffffffffffffffff16600083604051611b8991906138d8565b908152602001604051809103902060020160009054906101000a900473ffffffffffffffffffffffffffffffffffffffff1673ffffffffffffffffffffffffffffffffffffffff161415611c12576040517f08c379a0000000000000000000000000000000000000000000000000000000008152600401611c09906139f4565b60405180910390fd5b60011515600360003373ffffffffffffffffffffffffffffffffffffffff1673ffffffffffffffffffffffffffffffffffffffff16815260200190815260200160002083604051611c6391906138d8565b908152602001604051809103902060009054906101000a900460ff1615151415611cc2576040517f08c379a0000000000000000000000000000000000000000000000000000000008152600401611cb990613a74565b60405180910390fd5b60006001600084604051611cd691906138d8565b90815260200160405180910390206003016000828254611cf69190613bb7565b925050819055506001600360003373ffffffffffffffffffffffffffffffffffffffff1673ffffffffffffffffffffffffffffffffffffffff16815260200190815260200160002084604051611d4c91906138d8565b908152602001604051809103902060006101000a81548160ff0219169083151502179055506003600084604051611d8391906138d8565b908152602001604051809103902060030154118015611de35750600083604051611dad91906138d8565b908152602001604051809103902060040154600084604051611dcf91906138d8565b908152602001604051809103902060030154115b15611e265760008084604051611df991906138d8565b908152602001604051809103902060020160146101000a81548160ff021916908315150217905550600190505b6008600754118015611e72575060646032600754611e449190613c3e565b611e4e9190613c0d565b600084604051611e5e91906138d8565b908152602001604051809103902060030154115b15611eb55760008084604051611e8891906138d8565b908152602001604051809103902060020160146101000a81548160ff021916908315150217905550600190505b8015611f53576001600560008086604051611ed091906138d8565b908152602001604051809103902060020160009054906101000a900473ffffffffffffffffffffffffffffffffffffffff1673ffffffffffffffffffffffffffffffffffffffff1673ffffffffffffffffffffffffffffffffffffffff1681526020019081526020016000206000828254611f4b9190613bb7565b925050819055505b505050565b6060600660009054906101000a900473ffffffffffffffffffffffffffffffffffffffff1673ffffffffffffffffffffffffffffffffffffffff163373ffffffffffffffffffffffffffffffffffffffff1614611fea576040517f08c379a0000000000000000000000000000000000000000000000000000000008152600401611fe1906139b4565b60405180910390fd5b81600073ffffffffffffffffffffffffffffffffffffffff16600160008373ffffffffffffffffffffffffffffffffffffffff1673ffffffffffffffffffffffffffffffffffffffff16815260200190815260200160002060010160009054906101000a900473ffffffffffffffffffffffffffffffffffffffff1673ffffffffffffffffffffffffffffffffffffffff1614156120bd576040517f08c379a00000000000000000000000000000000000000000000000000000000081526004016120b490613ab4565b60405180910390fd5b600160008473ffffffffffffffffffffffffffffffffffffffff1673ffffffffffffffffffffffffffffffffffffffff168152602001908152602001600020600001805461210a90613d22565b80601f016020809104026020016040519081016040528092919081815260200182805461213690613d22565b80156121835780601f1061215857610100808354040283529160200191612183565b820191906000526020600020905b81548152906001019060200180831161216657829003601f168201915b5050505050915050919050565b600660009054906101000a900473ffffffffffffffffffffffffffffffffffffffff1673ffffffffffffffffffffffffffffffffffffffff163373ffffffffffffffffffffffffffffffffffffffff1614612220576040517f08c379a0000000000000000000000000000000000000000000000000000000008152600401612217906139b4565b60405180910390fd5b80600073ffffffffffffffffffffffffffffffffffffffff16600160008373ffffffffffffffffffffffffffffffffffffffff1673ffffffffffffffffffffffffffffffffffffffff16815260200190815260200160002060010160009054906101000a900473ffffffffffffffffffffffffffffffffffffffff1673ffffffffffffffffffffffffffffffffffffffff1614156122f3576040517f08c379a00000000000000000000000000000000000000000000000000000000081526004016122ea90613ab4565b60405180910390fd5b600160008373ffffffffffffffffffffffffffffffffffffffff1673ffffffffffffffffffffffffffffffffffffffff16815260200190815260200160002060008082016000612343919061305e565b6001820160006101000a81549073ffffffffffffffffffffffffffffffffffffffff021916905560028201600061237a919061305e565b600382016000905560048201600090556005820160006101000a81549060ff021916905550506001600760008282546123b39190613bb7565b925050819055505050565b600073ffffffffffffffffffffffffffffffffffffffff16600160003373ffffffffffffffffffffffffffffffffffffffff1673ffffffffffffffffffffffffffffffffffffffff16815260200190815260200160002060010160009054906101000a900473ffffffffffffffffffffffffffffffffffffffff1673ffffffffffffffffffffffffffffffffffffffff161415612490576040517f08c379a000000000000000000000000000000000000000000000000000000000815260040161248790613994565b60405180910390fd5b80600073ffffffffffffffffffffffffffffffffffffffff16600160008373ffffffffffffffffffffffffffffffffffffffff1673ffffffffffffffffffffffffffffffffffffffff16815260200190815260200160002060010160009054906101000a900473ffffffffffffffffffffffffffffffffffffffff1673ffffffffffffffffffffffffffffffffffffffff161415612563576040517f08c379a000000000000000000000000000000000000000000000000000000000815260040161255a90613ab4565b60405180910390fd5b60011515600460003373ffffffffffffffffffffffffffffffffffffffff1673ffffffffffffffffffffffffffffffffffffffff16815260200190815260200160002060008473ffffffffffffffffffffffffffffffffffffffff1673ffffffffffffffffffffffffffffffffffffffff16815260200190815260200160002060009054906101000a900460ff1615151415612634576040517f08c379a000000000000000000000000000000000000000000000000000000000815260040161262b90613a34565b60405180910390fd5b60018060008473ffffffffffffffffffffffffffffffffffffffff1673ffffffffffffffffffffffffffffffffffffffff16815260200190815260200160002060030160008282546126869190613bb7565b925050819055506001600460003373ffffffffffffffffffffffffffffffffffffffff1673ffffffffffffffffffffffffffffffffffffffff16815260200190815260200160002060008473ffffffffffffffffffffffffffffffffffffffff1673ffffffffffffffffffffffffffffffffffffffff16815260200190815260200160002060006101000a81548160ff0219169083151502179055506003600160008473ffffffffffffffffffffffffffffffffffffffff1673ffffffffffffffffffffffffffffffffffffffff168152602001908152602001600020600301541180156127cf57506064601e6007546127809190613c3e565b61278a9190613c0d565b600160008473ffffffffffffffffffffffffffffffffffffffff1673ffffffffffffffffffffffffffffffffffffffff16815260200190815260200160002060030154115b15612830576000600160008473ffffffffffffffffffffffffffffffffffffffff1673ffffffffffffffffffffffffffffffffffffffff16815260200190815260200160002060050160006101000a81548160ff0219169083151502179055505b6003600560008473ffffffffffffffffffffffffffffffffffffffff1673ffffffffffffffffffffffffffffffffffffffff1681526020019081526020016000205411156128d4576000600160008473ffffffffffffffffffffffffffffffffffffffff1673ffffffffffffffffffffffffffffffffffffffff16815260200190815260200160002060050160006101000a81548160ff0219169083151502179055505b5050565b6060600073ffffffffffffffffffffffffffffffffffffffff16600160003373ffffffffffffffffffffffffffffffffffffffff1673ffffffffffffffffffffffffffffffffffffffff16815260200190815260200160002060010160009054906101000a900473ffffffffffffffffffffffffffffffffffffffff1673ffffffffffffffffffffffffffffffffffffffff1614156129ac576040517f08c379a00000000000000000000000000000000000000000000000000000000081526004016129a390613994565b60405180910390fd5b82600073ffffffffffffffffffffffffffffffffffffffff166000826040516129d591906138d8565b908152602001604051809103902060020160009054906101000a900473ffffffffffffffffffffffffffffffffffffffff1673ffffffffffffffffffffffffffffffffffffffff161415612a5e576040517f08c379a0000000000000000000000000000000000000000000000000000000008152600401612a5590613a54565b60405180910390fd5b60001515600085604051612a7291906138d8565b908152602001604051809103902060020160149054906101000a900460ff1615151415612c0257600084604051612aa991906138d8565b908152602001604051809103902060008082016000612ac8919061305e565b600182016000612ad8919061305e565b6002820160006101000a81549073ffffffffffffffffffffffffffffffffffffffff02191690556002820160146101000a81549060ff0219169055600382016000905560048201600090555050612b2f8484612e6f565b82600285604051612b4091906138d8565b90815260200160405180910390206002019080519060200190612b649291906130d5565b5033600285604051612b7691906138d8565b908152602001604051809103902060010160006101000a81548173ffffffffffffffffffffffffffffffffffffffff021916908373ffffffffffffffffffffffffffffffffffffffff1602179055506040518060400160405280601681526020017f437573746f6d65722044617461205265706c61636564000000000000000000008152509150612c3b565b6040518060400160405280602081526020017f437573746f6d657220446174612043616e6e6f74206265205265706c6163656481525091505b5092915050565b600660009054906101000a900473ffffffffffffffffffffffffffffffffffffffff1673ffffffffffffffffffffffffffffffffffffffff163373ffffffffffffffffffffffffffffffffffffffff1614612cd2576040517f08c379a0000000000000000000000000000000000000000000000000000000008152600401612cc9906139b4565b60405180910390fd5b612cda61315b565b82816020019073ffffffffffffffffffffffffffffffffffffffff16908173ffffffffffffffffffffffffffffffffffffffff168152505083816000018190525081816040018190525060018160a001901515908115158152505080600160008573ffffffffffffffffffffffffffffffffffffffff1673ffffffffffffffffffffffffffffffffffffffff1681526020019081526020016000206000820151816000019080519060200190612d919291906130d5565b5060208201518160010160006101000a81548173ffffffffffffffffffffffffffffffffffffffff021916908373ffffffffffffffffffffffffffffffffffffffff1602179055506040820151816002019080519060200190612df59291906130d5565b50606082015181600301556080820151816004015560a08201518160050160006101000a81548160ff021916908315150217905550905050600160076000828254612e409190613bb7565b9250508190555050505050565b600060646032600754612e609190613c3e565b612e6a9190613c0d565b905090565b600073ffffffffffffffffffffffffffffffffffffffff16600083604051612e9791906138d8565b908152602001604051809103902060020160009054906101000a900473ffffffffffffffffffffffffffffffffffffffff1673ffffffffffffffffffffffffffffffffffffffff1614612f1f576040517f08c379a0000000000000000000000000000000000000000000000000000000008152600401612f1690613ad4565b60405180910390fd5b612f276131a9565b82816000018190525081816020018190525033816040019073ffffffffffffffffffffffffffffffffffffffff16908173ffffffffffffffffffffffffffffffffffffffff1681525050600181606001901515908115158152505080600084604051612f9391906138d8565b90815260200160405180910390206000820151816000019080519060200190612fbd9291906130d5565b506020820151816001019080519060200190612fda9291906130d5565b5060408201518160020160006101000a81548173ffffffffffffffffffffffffffffffffffffffff021916908373ffffffffffffffffffffffffffffffffffffffff16021790555060608201518160020160146101000a81548160ff0219169083151502179055506080820151816003015560a08201518160040155905050505050565b50805461306a90613d22565b6000825580601f1061307c575061309b565b601f01602090049060005260206000209081019061309a91906131f7565b5b50565b604051806060016040528060608152602001600073ffffffffffffffffffffffffffffffffffffffff168152602001606081525090565b8280546130e190613d22565b90600052602060002090601f016020900481019282613103576000855561314a565b82601f1061311c57805160ff191683800117855561314a565b8280016001018555821561314a579182015b8281111561314957825182559160200191906001019061312e565b5b50905061315791906131f7565b5090565b6040518060c0016040528060608152602001600073ffffffffffffffffffffffffffffffffffffffff1681526020016060815260200160008152602001600081526020016000151581525090565b6040518060c001604052806060815260200160608152602001600073ffffffffffffffffffffffffffffffffffffffff16815260200160001515815260200160008152602001600081525090565b5b808211156132105760008160009055506001016131f8565b5090565b600061322761322284613b60565b613b2f565b90508281526020810184848401111561323f57600080fd5b61324a848285613ce0565b509392505050565b60008135905061326181613e21565b92915050565b60008135905061327681613e38565b92915050565b600082601f83011261328d57600080fd5b813561329d848260208601613214565b91505092915050565b6000602082840312156132b857600080fd5b60006132c684828501613252565b91505092915050565b600080604083850312156132e257600080fd5b60006132f085828601613252565b925050602061330185828601613267565b9150509250929050565b60006020828403121561331d57600080fd5b600082013567ffffffffffffffff81111561333757600080fd5b6133438482850161327c565b91505092915050565b60008060006060848603121561336157600080fd5b600084013567ffffffffffffffff81111561337b57600080fd5b6133878682870161327c565b935050602061339886828701613252565b925050604084013567ffffffffffffffff8111156133b557600080fd5b6133c18682870161327c565b9150509250925092565b600080604083850312156133de57600080fd5b600083013567ffffffffffffffff8111156133f857600080fd5b6134048582860161327c565b925050602083013567ffffffffffffffff81111561342157600080fd5b61342d8582860161327c565b9150509250929050565b61344081613c98565b82525050565b61344f81613caa565b82525050565b600061346082613b90565b61346a8185613b9b565b935061347a818560208601613cef565b61348381613e10565b840191505092915050565b600061349982613b90565b6134a38185613bac565b93506134b3818560208601613cef565b80840191505092915050565b60006134cc602a83613b9b565b91507f4f6e6c7920526567697374657265642042616e6b2063616e207573652074686960008301527f732066756e6374696f6e000000000000000000000000000000000000000000006020830152604082019050919050565b6000613532602083613b9b565b91507f4f6e6c792041646d696e2063616e2075736520746869732066756e6374696f6e6000830152602082019050919050565b6000613572601f83613b9b565b91507f42616e6b206973206e6f74206e6f7420616c6c6f77656420746f20766f7465006000830152602082019050919050565b60006135b2602a83613b9b565b91507f5468652062616e6b207468617420617070726f766564204b59432063616e6e6f60008301527f7420446f776e566f7465000000000000000000000000000000000000000000006020830152604082019050919050565b6000613618602d83613b9b565b91507f546865204b594320697320616c72656164792076657269666965642c20756e6160008301527f626c6520746f2072656d6f7665000000000000000000000000000000000000006020830152604082019050919050565b600061367e602783613b9b565b91507f4f6e652042616e6b2063616e207265706f72742073616d652062616e6b206f6e60008301527f6c79206f6e6365000000000000000000000000000000000000000000000000006020830152604082019050919050565b60006136e4601283613b9b565b91507f437573746f6d6572206e6f7420666f756e6400000000000000000000000000006000830152602082019050919050565b6000613724602783613b9b565b91507f53616d652062616e6b2063616e6e6f7420766f746520666f722073616d65206360008301527f7573746f6d6572000000000000000000000000000000000000000000000000006020830152604082019050919050565b600061378a602583613b9b565b91507f546865204b594320776173206e6f74207265717565737465642062792074686560008301527f2062616e6b0000000000000000000000000000000000000000000000000000006020830152604082019050919050565b60006137f0601683613b9b565b91507f42616e6b2041646472657373206e6f7420666f756e64000000000000000000006000830152602082019050919050565b6000613830601883613b9b565b91507f4475706c696361746520437573746f6d657220456e74727900000000000000006000830152602082019050919050565b6000613870602883613b9b565b91507f5468652062616e6b207468617420617070726f766564204b59432063616e6e6f60008301527f74205570766f74650000000000000000000000000000000000000000000000006020830152604082019050919050565b6138d281613cd6565b82525050565b60006138e4828461348e565b915081905092915050565b60006040820190506139046000830185613446565b81810360208301526139168184613455565b90509392505050565b600060208201905081810360008301526139398184613455565b905092915050565b6000608082019050818103600083015261395b8187613455565b9050818103602083015261396f8186613455565b905061397e6040830185613446565b61398b6060830184613437565b95945050505050565b600060208201905081810360008301526139ad816134bf565b9050919050565b600060208201905081810360008301526139cd81613525565b9050919050565b600060208201905081810360008301526139ed81613565565b9050919050565b60006020820190508181036000830152613a0d816135a5565b9050919050565b60006020820190508181036000830152613a2d8161360b565b9050919050565b60006020820190508181036000830152613a4d81613671565b9050919050565b60006020820190508181036000830152613a6d816136d7565b9050919050565b60006020820190508181036000830152613a8d81613717565b9050919050565b60006020820190508181036000830152613aad8161377d565b9050919050565b60006020820190508181036000830152613acd816137e3565b9050919050565b60006020820190508181036000830152613aed81613823565b9050919050565b60006020820190508181036000830152613b0d81613863565b9050919050565b6000602082019050613b2960008301846138c9565b92915050565b6000604051905081810181811067ffffffffffffffff82111715613b5657613b55613de1565b5b8060405250919050565b600067ffffffffffffffff821115613b7b57613b7a613de1565b5b601f19601f8301169050602081019050919050565b600081519050919050565b600082825260208201905092915050565b600081905092915050565b6000613bc282613cd6565b9150613bcd83613cd6565b9250827fffffffffffffffffffffffffffffffffffffffffffffffffffffffffffffffff03821115613c0257613c01613d54565b5b828201905092915050565b6000613c1882613cd6565b9150613c2383613cd6565b925082613c3357613c32613d83565b5b828204905092915050565b6000613c4982613cd6565b9150613c5483613cd6565b9250817fffffffffffffffffffffffffffffffffffffffffffffffffffffffffffffffff0483118215151615613c8d57613c8c613d54565b5b828202905092915050565b6000613ca382613cb6565b9050919050565b60008115159050919050565b600073ffffffffffffffffffffffffffffffffffffffff82169050919050565b6000819050919050565b82818337600083830152505050565b60005b83811015613d0d578082015181840152602081019050613cf2565b83811115613d1c576000848401525b50505050565b60006002820490506001821680613d3a57607f821691505b60208210811415613d4e57613d4d613db2565b5b50919050565b7f4e487b7100000000000000000000000000000000000000000000000000000000600052601160045260246000fd5b7f4e487b7100000000000000000000000000000000000000000000000000000000600052601260045260246000fd5b7f4e487b7100000000000000000000000000000000000000000000000000000000600052602260045260246000fd5b7f4e487b7100000000000000000000000000000000000000000000000000000000600052604160045260246000fd5b6000601f19601f8301169050919050565b613e2a81613c98565b8114613e3557600080fd5b50565b613e4181613caa565b8114613e4c57600080fd5b5056fea2646970667358221220cd90f0f633ae9111b940af70a0668e96f381876d6e92b125d6aad78c2f54130d64736f6c63430008000033",
  "linkReferences": {},
  "deployedLinkReferences": {}
}